S00B00006173702E73726563D5
S3151FFF0000E85500200104FF1F95DEFF1F95DEFF1F2A
S3151FFF001095DEFF1F95DEFF1F95DEFF1F95DEFF1F78
S3151FFF002095DEFF1F95DEFF1F95DEFF1FDFDFFF1F1D
S3151FFF003095DEFF1F95DEFF1F95DEFF1F21DFFF1FCB
S3151FFF004021DFFF1F21DFFF1F21DFFF1F21DFFF1F14
S3151FFF005021DFFF1F21DFFF1F21DFFF1F21DFFF1F04
S3151FFF006021DFFF1F21DFFF1F21DFFF1F21DFFF1FF4
S3151FFF007021DFFF1F21DFFF1F21DFFF1F21DFFF1FE4
S3151FFF040071B64FF0000080F31488BFF36F8F124849
S3151FFF0410016881F30888114800B180474FF000003B
S3151FFF04200F49104A914204D2086001F1040191421B
S3151FFF0430FAD30D490D4A914208D20D4B0868186031
S3151FFF044001F1040103F104039142F7D3094800B1F7
S3151FFF045080470EF03DFCFEE7042A002065E1FF1FE3
S3151FFF0460C8310020904B00209C310020C431002052
S3151FFF04709C3100200000000080B584B000AF78607B
S3151FFF04804FF00003FB60124803F0D0FF4FF001004F
S3151FFF049003F016FE4FF0020003F012FE4FF00300AB
S3151FFF04A003F00EFE4FF0040003F00AFE40F60A505B
S3151FFF04B003F006FE4FF00003FB6003E0FB6803F14A
S3151FFF04C00103FB60FA684FF6FE739A42F6DDDDE71E
S3151FFF04D03848002080B582B000AF78604FF001002A
S3151FFF04E010F096F8FAE700BF80B485B000AF7860CA
S3151FFF04F04FF00003FB6010E0FB6803F10103FB6095
S3151FFF0500FA684FF6BB739A4207D97B681B681B684D
S3151FFF05101B79DBB203F080030FE07B681B681B6848
S3151FFF05201B79DBB2DBB25BB2002BE5DA7B681B689C
S3151FFF05301B681B79DBB203F08003184607F114070C
S3151FFF0540BD4680BC704700BF80B485B000AF7860E2
S3151FFF05504FF00003FB6010E0FB6803F10103FB6034
S3151FFF0560FA684FF6BB739A4207D97B681B681B68ED
S3151FFF05701B79DBB203F020030FE07B681B681B6848
S3151FFF05801B79DBB203F02003002BE5D07B681B68CA
S3151FFF05901B681B79DBB203F02003184607F114070C
S3151FFF05A0BD4680BC704700BF90B587B000AFF860EF
S3151FFF05B0B9607A60FB6843F48243A3F58243052B38
S3151FFF05C000F2868001A252F823F000BFE505FF1F48
S3151FFF05D07506FF1F1906FF1F4706FF1FEB05FF1FA8
S3151FFF05E0A306FF1F6FF02803E1E0734B4FF4407222
S3151FFF05F05A60714B4FF440721A6070496F4B03F587
S3151FFF0600805303F134031B6843F4006201F58053E3
S3151FFF061003F134031A605EE0694B4FF44072DA60F0
S3151FFF0620674B4FF440729A606449644B03F58053DE
S3151FFF063003F134031B6843F4805201F5805303F122
S3151FFF064034031A6047E05F4B4FF440721A645D4BE9
S3151FFF06504FF440725A645949584B03F5805303F1BF
S3151FFF066034031B6843F4005201F5805303F134032F
S3151FFF06701A6030E0504B4FF440725A664E4B4FF4A0
S3151FFF068040721A664D494D4B03F5805303F12803FC
S3151FFF06901B6843F4806201F5805303F128031A6038
S3151FFF06A019E0454B4FF440725A62434B4FF4407269
S3151FFF06B01A624249414B03F5805303F128031B6816
S3151FFF06C043F4006201F5805303F128031A6002E029
S3151FFF06D06FF010036BE0F86800F0C4F978617B696F
S3151FFF06E0DB78DBB223F00C03DAB27B69DA707B6946
S3151FFF06F04FF000029A707A69334B9A4214BF002358
S3151FFF07000123DAB27969314B994214BF00230123C2
S3151FFF0710DBB242EA0303DBB2002B06D0BB684FF402
S3151FFF0720FA6202FB03F3BB6005E0BB684FF47A7204
S3151FFF073002FB03F3BB607B684FEA0313BA68B2FB86
S3151FFF0740F3F39BB21C467B691B78DBB223F01F03B7
S3151FFF0750FB7404F4F8534FEA1323DBB203F01F03B2
S3151FFF0760DAB2FB7C42EA0303DAB27B691A70E2B2A2
S3151FFF07707B695A70BB684FEA43127B684FEA0313C4
S3151FFF0780B2FBF3F24FEA4413D41A7B699B7ADBB2AF
S3151FFF079023F01F03FB74E3B203F01F03DAB2FB7CE4
S3151FFF07A042EA0303DAB27B699A724FF000031846D7
S3151FFF07B007F11C07BD4690BD00D0044000700440E2
S3151FFF07C000C0044000B0044000A0064000B0064031
S3151FFF07D080B483B000AF786007F10C07BD4680BCBD
S3151FFF07E0704700BF80B483B000AF78607B681B681B
S3151FFF07F01B68DB79DBB2184607F10C07BD4680BCC9
S3151FFF0800704700BF80B483B000AF78600B46FB70A4
S3151FFF08107B681B681B68FA78DA7107F10C07BD4600
S3151FFF082080BC704780B485B000AF78600F4BFB600C
S3151FFF08304FF00003BB600EE0BB684FEAC3020C4BD1
S3151FFF0840D218FB681A60FB6803F11403FB60BB68D1
S3151FFF085003F10103BB60BB68012BEDD94FF0030307
S3151FFF0860BB6007F11407BD4680BC7047EC470020ED
S3151FFF08701825002080B586B000AF786039607A688A
S3151FFF088013464FEA83039B184FEA83031A461B4BF4
S3151FFF0890D3187B617B691B683B617B693A685A602A
S3151FFF08A07B691B69002B0AD178684CF250314FF4D4
S3151FFF08B06142FFF779FE7B694FF001021A61786883
S3151FFF08C000F0D0F8F860FB68DB78DBB243F00C036F
S3151FFF08D0DAB2FB68DA70FB68DB78DBB243F0200322
S3151FFF08E0DAB2FB68DA704FF045000DF04DFE7B69FB
S3151FFF08F0184607F11807BD4680BD00BFEC4700200D
S3151FFF090080B584B000AF786039603B681B68FB60B9
S3151FFF0910786800F0A7F8B860BB68DB78DBB223F016
S3151FFF09200C03DAB2BB68DA70BB68DB78DBB223F085
S3151FFF09302003DAB2BB68DA704FF045000DF0B8FE40
S3151FFF094007F11007BD4680BD80B584B000AF786044
S3151FFF0950094BFB604FF045000DF0AAFEFB685B6875
S3151FFF096018460CF0AFFB4FF045000DF00DFE07F1DB
S3151FFF09701007BD4680BD00BF0048002080B582B06E
S3151FFF098000AF78600B46FB707868FFF7ADFD034637
S3151FFF0990002B07D0FB7878681946FFF733FF4FF018
S3151FFF09A0010301E04FF00003184607F10807BD4694
S3151FFF09B080BD00BF80B582B000AF78607868FFF753
S3151FFF09C0C3FD0346002B04D07868FFF70BFF0346D2
S3151FFF09D001E04FF0FF33184607F10807BD4680BDFC
S3151FFF09E080B485B000AF786039607B681B68FB6099
S3151FFF09F03B68012B01D0022B00E000BF07F1140754
S3151FFF0A00BD4680BC704700BF80B485B000AF78601D
S3151FFF0A1039607B681B68FB603B68012B01D0022B8B
S3151FFF0A2000E000BF07F11407BD4680BC704700BF3B
S3151FFF0A3080B584B000AF03463960FB71386800F09C
S3151FFF0A4011F8F86000BFFB681B79DBB2DBB25BB244
S3151FFF0A50002BF8DAFB68FA79DA7107F11007BD4642
S3151FFF0A6080BD00BF80B483B000AF78607B6843F45E
S3151FFF0A708243A3F58243052B1AD801A252F823F00E
S3151FFF0A80990AFF1FA90AFF1FA10AFF1FA50AFF1F1A
S3151FFF0A909D0AFF1FAD0AFF1F094B0BE0094B09E01C
S3151FFF0AA0094B07E0094B05E0094B03E0094B01E042
S3151FFF0AB04FF00003184607F10C07BD4680BC704771
S3151FFF0AC000A0064000B0064000C0064000D006400A
S3151FFF0AD000A00E4000B00E4080B485B000AF786016
S3151FFF0AE07B6803F101034FEA0323B3F5407F16D05B
S3151FFF0AF0B3F5407F06DCB3F5807F0AD0B3F5007FE1
S3151FFF0B000AD015E0B3F5806F0CD0B3F5A06F0CD0EC
S3151FFF0B100EE00C4BFB600EE00B4BFB600BE00B4B31
S3151FFF0B20FB6008E00A4BFB6005E00A4BFB6002E037
S3151FFF0B304FF0000300E0FB68184607F11407BD4698
S3151FFF0B4080BC70470090044000A0044000B00440E2
S3151FFF0B5000C0044000D0044080B485B000AF786069
S3151FFF0B607B6803F101034FEA0323B3F5407F16D0DA
S3151FFF0B70B3F5407F06DCB3F5807F0AD0B3F5007F60
S3151FFF0B800AD015E0B3F5806F0CD0B3F5A06F0CD06C
S3151FFF0B900EE00C4BFB600EE00B4BFB600BE00B4BB1
S3151FFF0BA0FB6008E00A4BFB6005E00A4BFB6002E0B7
S3151FFF0BB04FF0000300E0FB68184607F11407BD4618
S3151FFF0BC080BC704700F00F4040F00F4080F00F4091
S3151FFF0BD0C0F00F4000F10F4080B586B000AFF86040
S3151FFF0BE0B960FA71BB71F868FFF7B6FF7861F868ED
S3151FFF0BF0FFF772FF38613B69002B02D16FF02803A5
S3151FFF0C003BE03B69BA684FF4807143F82210FB79CA
S3151FFF0C10012B24D17B695A694FF00101BB6801FA89
S3151FFF0C2003F31A437B695A61BB79012B0AD17B698F
S3151FFF0C301A684FF00101BB6801FA03F31A437B6978
S3151FFF0C401A6018E07B691A684FF00101BB6801FA49
S3151FFF0C5003F36FEA03031A407B691A600BE07B6994
S3151FFF0C605A694FF00101BB6801FA03F36FEA0303E9
S3151FFF0C701A407B695A614FF00003184607F11807A0
S3151FFF0C80BD4680BD80B584B000AF78603960786897
S3151FFF0C90FFF762FFF860FB681A693B6822FA03F3E6
S3151FFF0CA003F00103002B02D14FF0000301E04FF0C9
S3151FFF0CB00103184607F11007BD4680BD80B586B0F4
S3151FFF0CC000AFF860B9601346FB71F868FFF744FF82
S3151FFF0CD07861FB79002B0CD17B691A684FF00101F4
S3151FFF0CE0BB6801FA03F36FEA03031A407B691A60B5
S3151FFF0CF009E07B691A684FF00101BB6801FA03F32C
S3151FFF0D001A437B691A6007F11807BD4680BD00BFEE
S3151FFF0D1080B584B000AF786039607868FFF71CFF35
S3151FFF0D20F860FB68DA684FF001013B6801FA03F3CD
S3151FFF0D301A43FB68DA6007F11007BD4680BD00BF87
S3151FFF0D4080B582B000AF78607B68002B02D0012B85
S3151FFF0D502FD04DE000F0D0F82A492A4B03F58053D8
S3151FFF0D6003F138031B6843F0010201F5805303F1BA
S3151FFF0D7038031A60244B244A1278D2B242F0020279
S3151FFF0D80D2B21A70204B204A5278D2B242F00102D9
S3151FFF0D90D2B25A701D4B43F2D4029A601B4B4FF0CF
S3151FFF0DA010025A60194B194A126842F001021A6063
S3151FFF0DB021E000F0A1F81349124B03F5805303F10D
S3151FFF0DC038031B6843F0010201F5805303F1380313
S3151FFF0DD01A600E4B4FF032029A600C4B4FF0050212
S3151FFF0DE05A600A4B094A126842F001021A6002E072
S3151FFF0DF06FF0280301E04FF00003184607F10807BD
S3151FFF0E00BD4680BD00700440004006400000044000
S3151FFF0E1080B582B000AF78603349334B03F58053FB
S3151FFF0E2003F138031B6843F0010201F5805303F1F9
S3151FFF0E3038031A6000F060F87B68B3F58A7F04D029
S3151FFF0E4040F20632934217D02DE02749264B03F572
S3151FFF0E50805303F138031B6843F4007201F5805377
S3151FFF0E6003F138031A60214B4FF4C062DA64204B3B
S3151FFF0E704FF010021A6019E01B491B4B03F58053F5
S3151FFF0E8003F138031B6843F4006201F5805303F136
S3151FFF0E9038031A60174B4FF480625A61144B4FF099
S3151FFF0EA020021A6002E06FF0280317E0104B104A6A
S3151FFF0EB0526842F004025A600D4B4FF6FF729A605A
S3151FFF0EC00B4B0B4A126842F002021A60084B084A84
S3151FFF0ED0126842F001021A604FF00003184607F12D
S3151FFF0EE00807BD4680BD00BF007004400090044048
S3151FFF0EF00000044000B0044080B400AF074B4FF022
S3151FFF0F0000021A60054B4FF000025A60034B4FF069
S3151FFF0F1000029A60BD4680BC704700BF00000440B8
S3151FFF0F2080B500AF054B054A126842F040021A60B2
S3151FFF0F304FF065000DF028FB80BD00BF0000044089
S3151FFF0F4080B500AF054B054A126822F040021A60B2
S3151FFF0F504FF065000DF0ACFB80BD00BF00000440E5
S3151FFF0F6080B584B000AF02460B46FA71BB71FB79A1
S3151FFF0F70022B02D96FF0110383E0FB79184600F0AD
S3151FFF0F80E1F9F860FB7943F48443B3F5844F24D129
S3151FFF0F903E493E4B03F5805303F13C031B6843F465
S3151FFF0FA0805201F5805303F13C031A604FF0000096
S3151FFF0FB04FF00D014FF001024FF00103FFF70CFE3B
S3151FFF0FC0334B4FF41072DA63314B4FF410721A64BE
S3151FFF0FD02F4B4FF400725A6433E0FB7943F484427C
S3151FFF0FE044F201239A421ED12849284B03F5805309
S3151FFF0FF003F13C031B6843F4005201F5805303F1D1
S3151FFF10003C031A60234B4FF410721A61214B4FF4A6
S3151FFF101010729A601F4B4FF410725A601D4B4FF49C
S3151FFF10200072DA600DE01949184B03F5805303F17F
S3151FFF103030031B6843F4805201F5805303F13003DD
S3151FFF10401A60FB6840F601421A60BB79002B09D173
S3151FFF1050FB681B6843F00042FB681A60FB680E4A79
S3151FFF1060DA6003E0FB684FF07852DA60FB680B4AE1
S3151FFF1070DA62FB681B6823F00102FB681A604FF0F8
S3151FFF10800003184607F11007BD4680BD00700440D8
S3151FFF10900090044000D0044008000CB800000A1A54
S3151FFF10A080B584B000AF02460B46FA71BB71FB7960
S3151FFF10B0022B02D96FF0110383E0FB79184600F06C
S3151FFF10C041F9F860FB7943F48443B3F5844F24D188
S3151FFF10D03E493E4B03F5805303F13C031B6843F424
S3151FFF10E0805201F5805303F13C031A604FF0000055
S3151FFF10F04FF00D014FF001024FF00103FFF76CFD9B
S3151FFF1100334B4FF41072DA63314B4FF410721A647C
S3151FFF11102F4B4FF400725A6433E0FB7943F484423A
S3151FFF112044F201239A421ED12849284B03F58053C7
S3151FFF113003F13C031B6843F4005201F5805303F18F
S3151FFF11403C031A60234B4FF410721A61214B4FF465
S3151FFF115010729A601F4B4FF410725A601D4B4FF45B
S3151FFF11600072DA600DE01949184B03F5805303F13E
S3151FFF117030031B6843F4805201F5805303F130039C
S3151FFF11801A60FB6840F601421A60BB79002B09D132
S3151FFF1190FB681B6843F00042FB681A60FB680E4A38
S3151FFF11A0DA6003E0FB684FF07852DA60FB680B4AA0
S3151FFF11B0DA62FB681B6823F00102FB681A604FF0B7
S3151FFF11C00003184607F11007BD4680BD0070044097
S3151FFF11D00090044000D0044000000CB800000A1A1B
S3151FFF11E080B586B000AF0346B9607A60FB734FF0D8
S3151FFF11F000037B61FB7B184600F0A4F838613B694F
S3151FFF12001C4ADA623B691B6843F440623B691A60FA
S3151FFF12104FF000037B611AE07B6803F1FF327B69A6
S3151FFF12209A4208D1BA687B69D3181B7843F00062CC
S3151FFF12303B695A6307E0BA687B69D3181B7843F08B
S3151FFF124000423B695A637B6903F101037B617A693C
S3151FFF12507B689A42E0D300BF3B69DB6A002BFBDA50
S3151FFF12603B69DB6A43F000423B69DA6207F1180705
S3151FFF1270BD4680BD00000A1A80B584B000AF034685
S3151FFF12803960FB71FB79184600F05CF8F860FB6864
S3151FFF1290DB6A03F40033002B0DD0FB689B6BDAB2BE
S3151FFF12A03B681A70FB68DB6A43F40032FB68DA623D
S3151FFF12B04FF001030AE0FB68074ADA62FB681B6807
S3151FFF12C043F44062FB681A604FF00003184607F1AC
S3151FFF12D01007BD4680BD00BF00000A1A80B584B047
S3151FFF12E000AF0346FB71FB79184600F02BF8F86039
S3151FFF12F0FB681B6B43F40032FB681A63FB7903F130
S3151FFF13002A0318460DF040F907F11007BD4680BDA9
S3151FFF131080B584B000AF0346FB71FB79184600F01A
S3151FFF132011F8F860FB681B6B23F40032FB681A6326
S3151FFF1330FB7903F12A0318460DF0BAF907F11007D7
S3151FFF1340BD4680BD80B485B000AF0346FB71FB79F8
S3151FFF13509BB243F48443FB81FB8944F201229342F0
S3151FFF136008D044F20222934206D0B3F5844F05D12B
S3151FFF1370064B05E0064B03E0064B01E04FF000036B
S3151FFF1380184607F11407BD4680BC704700C00240D0
S3151FFF139000D0024000C00A4080B485B000AF78601D
S3151FFF13A07B684FEA031343F4445343F210129342ED
S3151FFF13B009D043F22012934208D0B3F5445F08D1F8
S3151FFF13C0094BFB6008E0094BFB6005E0084BFB6020
S3151FFF13D002E04FF0000300E0FB68184607F1140711
S3151FFF13E0BD4680BC704700BF00800340009003408E
S3151FFF13F000800B4080B485B000AF78607B6803F137
S3151FFF140001034FEA0323B3F5007F10D0B3F5007F27
S3151FFF141003DCB3F5807F07D012E0B3F5407F09D019
S3151FFF1420B3F5806F09D00BE00A4BFB600BE00A4B4D
S3151FFF1430FB6008E0094BFB6005E0094BFB6002E020
S3151FFF14404FF0000300E0FB68184607F11407BD467F
S3151FFF145080BC70470090044000A0044000B00440C9
S3151FFF146000C0044080B586B000AF0346FB80FB88F3
S3151FFF14704FEA13239BB203F1FF337B61FB8803F014
S3151FFF1480FF0303F1FF333B617869FFF7B3FFF86093
S3151FFF14901349134B03F5805303F138031A687B690E
S3151FFF14A003F109034FF0010000FA03F31A4301F595
S3151FFF14B0805303F138031A607B69012B06DDFB6836
S3151FFF14C03A694FF4806143F8221005E0FB683A69D9
S3151FFF14D04FF4407143F8221007F11807BD4680BD30
S3151FFF14E00070044080B483B000AF78601B491B4B6C
S3151FFF14F003F5805303F13C031B6843F0807201F52C
S3151FFF1500805303F13C031A60154B4FF00B021A6011
S3151FFF1510134B4FF00002DA64114B4FF000025A6073
S3151FFF15200F4B4FF224429A600D4A7B6803F101036A
S3151FFF15304FEAC303D3184FF028025A60084A7B6845
S3151FFF154003F101034FEAC303D3184FF000029A605A
S3151FFF155007F10C07BD4680BC704700BF00700440F3
S3151FFF15600080034080B483B000AF78601B491B4BDC
S3151FFF157003F5805303F13C031B6843F0007201F52B
S3151FFF1580805303F13C031A60154B4FF00B021A6091
S3151FFF1590134B4FF00002DA64114B4FF000025A60F3
S3151FFF15A00F4B41F66A029A600D4A7B6803F10103EE
S3151FFF15B04FEAC303D3184FF028025A60084A7B68C5
S3151FFF15C003F101034FEAC303D3184FF000029A60DA
S3151FFF15D007F10C07BD4680BC704700BF0070044073
S3151FFF15E00090034080B483B000AF78601B491B4B4C
S3151FFF15F003F5805303F130031B6843F0807201F537
S3151FFF1600805303F130031A60154B4FF00B021A601C
S3151FFF1610134B4FF00002DA64114B4FF000025A6072
S3151FFF16200F4B46F2A8129A600D4A7B6803F101031E
S3151FFF16304FEAC303D3184FF028025A60084A7B6844
S3151FFF164003F101034FEAC303D3184FF000029A6059
S3151FFF165007F10C07BD4680BC704700BF00700440F2
S3151FFF166000800B4080B584B000AF78603960786822
S3151FFF1670FFF792FEF8607B684FEA031343F4445368
S3151FFF168043F2101293425AD043F2201293427AD05A
S3151FFF1690B3F5445F40F09B807B684FEA031343F427
S3151FFF16A044523B6803F1010342EA0303A3F5445384
S3151FFF16B003F1FF33072B3BD801A252F823F000BFDC
S3151FFF16C0E116FF1FEB16FF1FF516FF1FFF16FF1F66
S3151FFF16D00917FF1F1317FF1F1D17FF1F2717FF1FB2
S3151FFF16E040F20230FFF7BEFE25E040F20330FFF760
S3151FFF16F0B9FE20E04FF44170FFF7B4FE1BE040F246
S3151FFF17000530FFF7AFFE16E040F20540FFF7AAFED2
S3151FFF171011E040F20640FFF7A5FE0CE040F207403E
S3151FFF1720FFF7A0FE07E04FF48160FFF79BFE02E085
S3151FFF17306FF0100350E03868FFF7D4FE4AE07B686E
S3151FFF17404FEA031343F444523B6803F1010342EA92
S3151FFF1750030343F21112934204D043F21212934230
S3151FFF176005D009E040F20120FFF77CFE07E040F2BB
S3151FFF17700220FFF777FE02E06FF010032CE03868B8
S3151FFF1780FFF7F0FE26E07B684FEA031343F444524C
S3151FFF17903B6803F1010342EA030343F2211293421B
S3151FFF17A004D043F22212934205D009E040F20B10F8
S3151FFF17B0FFF758FE07E04FF40570FFF753FE02E0F1
S3151FFF17C06FF0100308E03868FFF70CFF02E06FF0B9
S3151FFF17D0100301E04FF00003184607F11007BD463F
S3151FFF17E080BD00BF80B586B000AFF860B9607A6074
S3151FFF17F0F868FFF7D1FD7861FB68002B02DBFB68FA
S3151FFF1800022B02DD6FF0100322E0FB68002B08D1CD
S3151FFF1810BB68002B02DBBB68072B02DD6FF01003D3
S3151FFF182016E0FB68002B08D0BB68002B05D0BB68F2
S3151FFF1830012B02D06FF010030AE07A69BB6803F130
S3151FFF184001034FEAC303D3187A689A604FF0000368
S3151FFF1850184607F11807BD4680BD00BF80B483B089
S3151FFF186000AF786039602F492E4B03F5805303F184
S3151FFF18703C031B6843F4000201F5805303F13C034D
S3151FFF18801A60294B284A126822F002021A60264B59
S3151FFF1890254A126842F001021A60234A7B6803F148
S3151FFF18A010034FEA0313D3183A681A601E491E4ADC
S3151FFF18B07B684FEA0313D31803F584731B6843F042
S3151FFF18C001027B684FEA0313CB1803F584731A6073
S3151FFF18D01549154A7B684FEA0313D31803F584731B
S3151FFF18E01B6823F002027B684FEA0313CB1803F52D
S3151FFF18F084731A607B6843F44853A3F54853032B3D
S3151FFF19000AD801A252F823F01919FF1F1919FF1F31
S3151FFF19101919FF1F1919FF1F00BF07F10C07BD4636
S3151FFF192080BC7047007004400070034080B582B0D2
S3151FFF193000AF78600D490D4A7B684FEA0313D31832
S3151FFF194003F584731B6843F002027B684FEA031398
S3151FFF1950CB1803F584731A607B6803F1540318468B
S3151FFF19600CF012FE07F10807BD4680BD007003404D
S3151FFF197080B582B000AF78600D490D4A7B684FEA8C
S3151FFF19800313D31803F584731B6823F002027B68C6
S3151FFF19904FEA0313CB1803F584731A607B6803F1B1
S3151FFF19A0540318460CF084FE07F10807BD4680BD99
S3151FFF19B00070034080B400AF0C4BD3F80C3103F01B
S3151FFF19C00103DBB2002B0DD0094B1B6803F101028C
S3151FFF19D0074B1A60054B054AD2F80C2142F001024C
S3151FFF19E0C3F80C21BD4680BC704700BF0070034083
S3151FFF19F01448002080B483B000AF78607B684FEA3D
S3151FFF1A00032343F4C043B3F5C04F0ED11849184BF8
S3151FFF1A1003F5805303F13C031B6843F0006201F596
S3151FFF1A20805303F13C031A6019E07B684FEA0323D7
S3151FFF1A3043F4C043B3F5C24F0ED10D490C4B03F50B
S3151FFF1A40805303F130031B6843F0006201F5805397
S3151FFF1A5003F130031A6002E04FF0000301E04FF07D
S3151FFF1A600103184607F10C07BD4680BC704700BF30
S3151FFF1A700070044080B584B000AF786039604FF0C6
S3151FFF1A800003FB817868396800F034F87B684FEAFA
S3151FFF1A90032343F4C043B3F5C04F10D100BF134B0D
S3151FFF1AA01B6803F08003002BF9D0104B1B69FB81CA
S3151FFF1AB00E4B0E4A126822F080021A600FE000BF1B
S3151FFF1AC00B4B1B6803F08003002BF9D0084B1B69D8
S3151FFF1AD0FB81074B064A126822F080021A60FB89B8
S3151FFF1AE0184607F11007BD4680BD00BF00B0034073
S3151FFF1AF000B00B4080B483B000AF786039607B685D
S3151FFF1B00002B1CD13B68002B16DB3B68172B13DC06
S3151FFF1B101D4B4FF05C029A601B4B4FF00402DA60BD
S3151FFF1B20194B4FF007025A62174B3A6802F01F0212
S3151FFF1B3042F040021A601FE04FF000031EE03B68B1
S3151FFF1B40002B16DB3B68172B13DC104B4FF05C0289
S3151FFF1B509A600E4B4FF00402DA600C4B4FF00702F0
S3151FFF1B605A620A4B3A6802F01F0242F040021A609D
S3151FFF1B7002E04FF0000301E04FF00103184607F1A3
S3151FFF1B800C07BD4680BC704700B0034000B00B403A
S3151FFF1B9080B483B000AF786039607B684FEA032358
S3151FFF1BA043F4C043B3F5C04F0DD13B68002B07DB92
S3151FFF1BB03B68172B04DC144B4FF05F021A601BE0C8
S3151FFF1BC04FF000031AE07B684FEA032343F4C04339
S3151FFF1BD0B3F5C24F0DD13B68002B07DB3B68172BB5
S3151FFF1BE004DC0A4B4FF05F021A6005E04FF000035B
S3151FFF1BF004E04FF0000301E04FF00103184607F121
S3151FFF1C000C07BD4680BC704700B0034000B00B40B9
S3151FFF1C1080B483B000AF78607B68042B00F2FE8030
S3151FFF1C2001A252F823F000BF3D1CFF1F9D1CFF1F83
S3151FFF1C30FD1CFF1F5D1DFF1FBD1DFF1F7D497D4B2B
S3151FFF1C4003F5805303F13C031B6843F0007201F554
S3151FFF1C50805303F13C031A60774B4FF4C0621A623D
S3151FFF1C60754B4FF4C0625A62744B4FF00002DA6431
S3151FFF1C70724B4FF6FF729A60704B4FF000025A6716
S3151FFF1C806E4B4FF005025A656C4B4FF018021A60E8
S3151FFF1C906A4B4FF00D02C3F88020C2E06549654BC2
S3151FFF1CA003F5805303F130031B6843F0807201F580
S3151FFF1CB0805303F130031A605F4B4FF4C0629A6281
S3151FFF1CC05D4B4FF4C062DA625D4B4FF00002DA6480
S3151FFF1CD05B4B4FF6FF729A60594B4FF000025A67E4
S3151FFF1CE0574B4FF005025A65554B4FF018021A60B6
S3151FFF1CF0534B4FF00D02C3F8802092E04D494D4BD9
S3151FFF1D0003F5805303F13C031B6843F0007201F593
S3151FFF1D10805303F13C031A60474B4FF4E0621A638B
S3151FFF1D20454B4FF4E0625A63444B4FF00002DA64AF
S3151FFF1D30424B4FF6FF729A60404B4FF000025A67B5
S3151FFF1D403E4B4FF005025A653C4B4FF018021A6087
S3151FFF1D503A4B4FF00D02C3F8802062E03549354BF1
S3151FFF1D6003F5805303F13C031B6843F0007201F533
S3151FFF1D70805303F13C031A60324B4FF4C0621A6063
S3151FFF1D80304B4FF4C0625A602C4B4FF00002DA649F
S3151FFF1D902A4B4FF6FF729A60284B4FF000025A6785
S3151FFF1DA0264B4FF005025A65244B4FF018021A6057
S3151FFF1DB0224B4FF00D02C3F8802032E01D491D4B09
S3151FFF1DC003F5805303F130031B6843F0807201F55F
S3151FFF1DD0805303F130031A601A4B4FF4C0629A64A3
S3151FFF1DE0184B4FF4C062DA64154B4FF00002DA64EA
S3151FFF1DF0134B4FF6FF729A60114B4FF000025A6753
S3151FFF1E000F4B4FF005025A650D4B4FF018021A6024
S3151FFF1E100B4B4FF00D02C3F8802002E06FF0280333
S3151FFF1E2001E04FF00003184607F10C07BD4680BCC3
S3151FFF1E30704700BF007004400090044000900340AD
S3151FFF1E4000800B4000A0044080B584B000AF7860CF
S3151FFF1E501A4BBB604FF00003FB600FE0BB684FF0F0
S3151FFF1E6000025A60BB686FF004029A60BB6803F1F9
S3151FFF1E700C03BB60FB6803F10103FB60FB68072BC9
S3151FFF1E80ECD90F4800F02CF80E4800F029F80E4841
S3151FFF1E9000F026F80D4800F023F80D4800F020F853
S3151FFF1EA00C4800F01DF80C4800F01AF80B4800F01C
S3151FFF1EB017F807F11007BD4680BD00BFC8310020C8
S3151FFF1EC000000104010014030200130303001203A1
S3151FFF1ED004000F030500100306000D0307000E0382
S3151FFF1EE080B586B000AF78604FF000037B617B68DB
S3151FFF1EF04FEA03434FEA13433B613B69002B02DB68
S3151FFF1F003B69072B02DD6FF0110336E03A69134673
S3151FFF1F104FEA43039B184FEA83031A46194BD318FD
S3151FFF1F20FB60FB685B68002B03D06FF028037B61A8
S3151FFF1F3022E07B684FEA234303F47F434FEA2323C1
S3151FFF1F4003F1FF327B684FEA234303F0FF0303F1DD
S3151FFF1F50FF33104619464FF001024FF00103FEF7FC
S3151FFF1F603BFEFB684FF001025A60FB684FF0010210
S3151FFF1F701A604FF000037B617B69184607F118074C
S3151FFF1F80BD4680BDC831002080B586B000AF7860E2
S3151FFF1F904FF000037B617B684FEA03434FEA13430E
S3151FFF1FA03B613B69002B02DB3B69072B02DD6FF0B1
S3151FFF1FB0110330E03A6913464FEA43039B184FEA72
S3151FFF1FC083031A46164BD318FB60FB685B68002B0F
S3151FFF1FD01DD07B684FEA234303F47F434FEA232336
S3151FFF1FE003F1FF327B684FEA234303F0FF0303F13D
S3151FFF1FF0FF33104619464FF00002FEF75FFEFB68E0
S3151FFF20004FF000021A604FF000037B6102E06FF092
S3151FFF20101B037B617B69184607F11807BD4680BD09
S3151FFF2020C831002080B584B000AF0346FB714FF067
S3151FFF20300003FB734FF00003BB734FF00003BB732B
S3151FFF204049E0FB7903F00103DBB2002B37D0FB7BA3
S3151FFF2050072B33D801A252F823F000BF7D20FF1FA5
S3151FFF20608520FF1F8D20FF1F9520FF1F9D20FF1F10
S3151FFF2070A520FF1FAD20FF1FB520FF1F1948FFF724
S3151FFF208083FF1CE01848FFF77FFF18E01748FFF78D
S3151FFF20907BFF14E01648FFF777FF10E01548FFF7A1
S3151FFF20A073FF0CE01448FFF76FFF08E01348FFF7B5
S3151FFF20B06BFF04E01248FFF767FF00E000BFFB79E5
S3151FFF20C04FEA5303FB71FB7B03F10103FB73BB7BDF
S3151FFF20D003F10103BB73BB7B072BB2D907F11007B4
S3151FFF20E0BD4680BD00000104010014030200130357
S3151FFF20F00300120304000F030500100306000D0360
S3151FFF210007000E0380B584B000AF0346FB714FF087
S3151FFF21100003FB734FF00003BB734FF00003BB734A
S3151FFF212049E0FB7903F00103DBB2002B37D0FB7BC2
S3151FFF2130072B33D801A252F823F000BF5D21FF1FE3
S3151FFF21406521FF1F6D21FF1F7521FF1F7D21FF1FAB
S3151FFF21508521FF1F8D21FF1F9521FF1F194800F0A6
S3151FFF216041F81CE0184800F03DF818E0174800F04A
S3151FFF217039F814E0164800F035F810E0154800F05E
S3151FFF218031F80CE0144800F02DF808E0134800F072
S3151FFF219029F804E0124800F025F800E000BFFB799C
S3151FFF21A04FEA5303FB71FB7B03F10103FB73BB7BFE
S3151FFF21B003F10103BB73BB7B072BB2D907F11007D3
S3151FFF21C0BD4680BD00000104010014030200130376
S3151FFF21D00300120304000F030500100306000D037F
S3151FFF21E007000E0380B586B000AF78604FF000037F
S3151FFF21F07B617B684FEA03434FEA13433B613B69AE
S3151FFF2200002B02DB3B69072B02DD6FF0110330E06A
S3151FFF22103A6913464FEA43039B184FEA83031A464D
S3151FFF2220164BD318FB60FB685B68002B1DD07B68C2
S3151FFF22304FEA234303F47F434FEA232303F1FF327E
S3151FFF22407B684FEA234303F0FF0303F1FF33104677
S3151FFF225019464FF00102FEF731FDFB684FF00102F1
S3151FFF22601A604FF000037B6102E06FF01B037B6177
S3151FFF22707B69184607F11807BD4680BDC831002088
S3151FFF228080B485B000AF78607B684FEA03434FEA9F
S3151FFF22901343FB60FB68002B02DBFB68072B02DD8A
S3151FFF22A06FF0110313E0FA6813464FEA43039B18B7
S3151FFF22B04FEA83031A46094BD318BB60BB685B689B
S3151FFF22C0002B02D0BB681B6801E06FF01B0318468B
S3151FFF22D007F11407BD4680BC704700BFC8310020F9
S3151FFF22E080B586B000AF78604FF000037B617B68D7
S3151FFF22F04FEA03434FEA13433B613B69002B02DB64
S3151FFF23003B69072B02DD6FF0110337E03A6913466E
S3151FFF23104FEA43039B184FEA83031A461A4BD318F8
S3151FFF2320FB60FB685B68002B24D07B684FEA234367
S3151FFF233003F47F434FEA232303F1FF327B684FEA00
S3151FFF2340234303F0FF0303F1FF3310461946FEF73E
S3151FFF2350DFFCFB681B68012B04D1FB684FF00002F3
S3151FFF23601A6003E0FB684FF001021A604FF000038B
S3151FFF23707B6102E06FF028037B617B69184607F1DB
S3151FFF23801807BD4680BD00BFC831002080B584B089
S3151FFF239000AF7860104BBB604FF00003FB600FE090
S3151FFF23A0BB684FF000025A60BB686FF004029A6069
S3151FFF23B0BB6803F10C03BB60FB6803F10103FB6002
S3151FFF23C0FB68002BECD04FF0867000F007F807F183
S3151FFF23D01007BD4680BD00BF2832002080B586B0DE
S3151FFF23E000AF78604FF000037B617B684FEA0343C2
S3151FFF23F04FEA13433B613B69002B02DB3B69002B13
S3151FFF240002DD6FF0110336E03A6913464FEA4303C5
S3151FFF24109B184FEA83031A46194BD318FB60FB68B9
S3151FFF24205B68002B03D06FF028037B6122E07B687C
S3151FFF24304FEA234303F47F434FEA232303F1FF327C
S3151FFF24407B684FEA234303F0FF0303F1FF33104675
S3151FFF245019464FF001024FF00003FEF7BDFBFB6865
S3151FFF24604FF001025A60FB684FF000021A604FF0EF
S3151FFF247000037B617B69184607F11807BD4680BDC0
S3151FFF24802832002080B586B000AF78604FF000037A
S3151FFF24907B617B684FEA03434FEA13433B613B690B
S3151FFF24A0002B02DB3B69002B02DD6FF0110330E0CF
S3151FFF24B03A6913464FEA43039B184FEA83031A46AB
S3151FFF24C0164BD318FB60FB685B68002B1DD07B6820
S3151FFF24D04FEA234303F47F434FEA232303F1FF32DC
S3151FFF24E07B684FEA234303F0FF0303F1FF331046D5
S3151FFF24F019464FF00102FEF7E1FBFB684FF00102A1
S3151FFF25001A604FF000037B6102E06FF01B037B61D4
S3151FFF25107B69184607F11807BD4680BD2832002084
S3151FFF252080B586B000AF78604FF000037B617B6894
S3151FFF25304FEA03434FEA13433B613B69002B02DB21
S3151FFF25403B69002B02DD6FF0110330E03A6913463A
S3151FFF25504FEA43039B184FEA83031A46164BD318BA
S3151FFF2560FB60FB685B68002B1DD07B684FEA23432C
S3151FFF257003F47F434FEA232303F1FF327B684FEABE
S3151FFF2580234303F0FF0303F1FF33104619464FF0B2
S3151FFF25900002FEF793FBFB684FF000021A604FF035
S3151FFF25A000037B6102E06FF01B037B617B691846AB
S3151FFF25B007F11807BD4680BD2832002080B485B0BD
S3151FFF25C000AF78607B684FEA03434FEA1343FB6014
S3151FFF25D0FB68002B02DBFB68002B02DD6FF011038C
S3151FFF25E013E0FA6813464FEA43039B184FEA830328
S3151FFF25F01A46094BD318BB60BB685B68002B02D01A
S3151FFF2600BB681B6801E06FF01B03184607F1140731
S3151FFF2610BD4680BC704700BF2832002080B586B0FC
S3151FFF262000AF7860314B3B614FF000037B610FE0DA
S3151FFF26303B694FF000021A603B696FF004025A6054
S3151FFF26403B6903F108033B617B6903F101037B616F
S3151FFF26507B69092BECD9264BFB604FF000037B618F
S3151FFF26601FE0FB68234A1A60FB68234A5A60FB6810
S3151FFF2670224A9A60FB68224ADA60FB68214A1A617E
S3151FFF2680FB68214A5A61FB68204A9A61FB68204A08
S3151FFF2690DA61FB6803F12003FB607B6903F101032A
S3151FFF26A07B617B69002BDCD01A4800F037F81A488C
S3151FFF26B000F034F80F4800F031F80F4800F02EF8FD
S3151FFF26C00E4800F02BF80E4800F028F80D4800F0D2
S3151FFF26D025F80D4800F022F80C4800F01FF80C48AB
S3151FFF26E000F01CF807F11807BD4680BD34320020E5
S3151FFF26F01848002002000B0403000A040400090403
S3151FFF27000500080406000704070004040800030465
S3151FFF27100900020400000D0401000C0480B586B0F9
S3151FFF272000AF78607B684FEA03434FEA13433B6171
S3151FFF27303B69002B02DB3B69092B02DD6FF011039F
S3151FFF27402DE03B694FEAC302174BD318FB60FB68AB
S3151FFF27501B68002B03D06FF028037B611EE07B688D
S3151FFF27604FEA234303F47F434FEA232303F1FF3249
S3151FFF27707B684FEA234303F0FF0303F1FF33104642
S3151FFF278019464FF000024FF00003FEF725FAFB68CC
S3151FFF27904FF001021A604FF000037B617B691846F9
S3151FFF27A007F11807BD4680BD3432002080B586B0BD
S3151FFF27B000AF78607B684FEA03434FEA13437B61A1
S3151FFF27C07B69002B02DB7B69092B02DD6FF011038F
S3151FFF27D022E07B694FEAC302124BD3183B613B6969
S3151FFF27E01B68002B16D07B684FEA234303F47F43F6
S3151FFF27F04FEA232303F1FF327B684FEA234303F09C
S3151FFF2800FF0303F1FF3310461946FEF73BFAF86045
S3151FFF2810FB6801E06FF01B03184607F11807BD465B
S3151FFF282080BD00BF3432002080B58CB000AF78600A
S3151FFF28307B684FEA43123B4BD318FB62FB6A1B684D
S3151FFF28401846FFF7B3FF0346FB60FB6A5B68184634
S3151FFF2850FFF7ACFF03463B61FB6A9B681846FFF712
S3151FFF2860A5FF03467B61FB6ADB681846FFF79EFFE2
S3151FFF28700346BB61FB6A1B691846FFF797FF0346B3
S3151FFF2880FB61FB6A5B691846FFF790FF03463B62D6
S3151FFF2890FB6A9B691846FFF789FF03467B62FB6A44
S3151FFF28A0DB691846FFF782FF0346BB62BB6A4FEA27
S3151FFF28B0C313DAB27B6A4FEA8313DBB242EA03031F
S3151FFF28C0DAB23B6A4FEA4313DBB242EA0303DAB2D9
S3151FFF28D0FB694FEA0313DBB242EA0303DAB2BB69B2
S3151FFF28E04FEAC303DBB242EA0303DAB27B694FEA5D
S3151FFF28F08303DBB242EA0303DAB23B694FEA4303C0
S3151FFF2900DBB242EA0303DAB2FB68DBB242EA030336
S3151FFF2910DBB287F82B3097F82B30184607F13007B5
S3151FFF2920BD4680BD1848002080B584B000AF7860D3
S3151FFF2930344BBB604FF00003FB604BE0FB68002B83
S3151FFF294020D1BB684FF080021A71BB684FF000029F
S3151FFF2950DA80BB684FF000029A60BB684FF0000237
S3151FFF2960DA60BB684FF000021A61BB684FF00002C6
S3151FFF29701A75BB684FF000029A61BB686FF00402BD
S3151FFF2980DA611FE0BB684FF080021A71BB684FF018
S3151FFF29900002DA80BB684FF000029A60BB684FF0F7
S3151FFF29A00002DA60BB684FF000021A61BB684FF086
S3151FFF29B001021A75BB684FF000029A61BB686FF080
S3151FFF29C00402DA61BB6803F12003BB60FB6803F1F6
S3151FFF29D00103FB60FB68012BB0D90B4800F018F809
S3151FFF29E00A4800F015F808484FF0000100F0F8F804
S3151FFF29F006484FF0000100F0F3F807F11007BD4638
S3151FFF2A0080BD00BF84320020000021310100043148
S3151FFF2A1080B586B000AF78607B684FEA03434FEA05
S3151FFF2A2013433B613B69002B02DB3B69012B02DD35
S3151FFF2A306FF0110328E03B694FEA4312154BD3187A
S3151FFF2A40FB60FB689B69002B03D06FF028037B613C
S3151FFF2A5019E07B684FEA134303F0F0034FEA1313A2
S3151FFF2A601A467B684FEA134303F00F0303F1FF3345
S3151FFF2A7010461946FEF7F6FDFB684FF001029A61F5
S3151FFF2A804FF000037B617B69184607F11807BD46A8
S3151FFF2A9080BD00BF8432002080B586B000AF78604E
S3151FFF2AA00B467B807B684FEA03434FEA1343FB606A
S3151FFF2AB0FB68002B02DBFB68012B02DD6FF01103A6
S3151FFF2AC087E0FB684FEA4312444BD318BB60BB68D2
S3151FFF2AD09B69002B79D0BB681B7D002B2FD1B7F9C4
S3151FFF2AE002301E2B03DD4FF01E037B8007E0B7F975
S3151FFF2AF0023013F11E0F02DA4FF6E2737B80B7F92E
S3151FFF2B000230002B0DDAB7F9022013464FEA0212E5
S3151FFF2B109B1A4FEA430303F5145303F11C033B614F
S3151FFF2B203CE0B7F9022013464FEA02129B1A4FEAFF
S3151FFF2B30430303F5145303F11C033B612EE0B7F95F
S3151FFF2B4002302D2B03DD4FF02D037B8007E0B7F9F6
S3151FFF2B50023013F12D0F02DA4FF6D3737B80B7F9CD
S3151FFF2B600230002B0DDAB7F9022013464FEA031383
S3151FFF2B709B1A4FEA430303F5145303F11C033B61EF
S3151FFF2B800CE0B7F9022013464FEA03139B1A4FEACD
S3151FFF2B90430303F5145303F11C033B617B684FEAA1
S3151FFF2BA0134303F0F0034FEA131319467B684FEAEB
S3151FFF2BB0134303F00F0303F1FF331A463B6908461E
S3151FFF2BC011461A46FEF70EFE02E06FF01B037B61EE
S3151FFF2BD07B69184607F11807BD4680BD8432002062
S3151FFF2BE080B586B000AF78600B467B807B684FEA67
S3151FFF2BF003434FEA1343FB60FB68002B02DBFB68B3
S3151FFF2C00012B02DD6FF011035BE0FB684FEA4312F6
S3151FFF2C102E4BD318BB60BB689B69002B4DD0BB687F
S3151FFF2C201B7D002B19D1B7F9022040F6C4139A4218
S3151FFF2C3003DD40F6C4137B8007E0B7F90220244B60
S3151FFF2C409A4202DA4FF23C637B80B7F90230C3F533
S3151FFF2C50145303F11C033B6118E0B7F9022040F63A
S3151FFF2C60CA039A4203DD40F6CA037B8007E0B7F922
S3151FFF2C700220184B9A4202DA4FF236737B80B7F95E
S3151FFF2C800230C3F5145303F11C033B617B684FEA04
S3151FFF2C90134303F0F0034FEA131319467B684FEAFA
S3151FFF2CA0134303F00F0303F1FF331A463B6908462D
S3151FFF2CB011461A46FEF796FD02E06FF01B037B6176
S3151FFF2CC07B69184607F11807BD4680BD8432002071
S3151FFF2CD03CF6FFFF36F7FFFF80B584B000AF786085
S3151FFF2CE01F4BBB604FF00003FB601FE0BB684FF03D
S3151FFF2CF000021A71BB684FF000029A60BB684FF063
S3151FFF2D000002DA60BB684FF000021A61BB684FF022
S3151FFF2D1000025A61BB686FF004029A61BB6803F138
S3151FFF2D201C03BB60FB6803F10103FB60FB68002B01
S3151FFF2D30DCD00C4800F018F84FF000004FF00801E8
S3151FFF2D404FF001024FF00103FDF746FF05484FF015
S3151FFF2D50000100F051F807F11007BD4680BD00BF07
S3151FFF2D60C43200200000113180B586B000AF7860F5
S3151FFF2D707B684FEA03434FEA13433B613B69002BD3
S3151FFF2D8002DB3B69002B02DD6FF011032DE03A6971
S3151FFF2D9013464FEAC3039B1A4FEA83031A46154B83
S3151FFF2DA0D318FB60FB685B69002B03D06FF028030A
S3151FFF2DB07B6119E07B684FEA134303F0F0034FEA89
S3151FFF2DC013131A467B684FEA134303F00F0303F1EE
S3151FFF2DD0FF3310461946FEF745FCFB684FF001020D
S3151FFF2DE05A614FF000037B617B69184607F118078D
S3151FFF2DF0BD4680BDC432002080B586B000AF786067
S3151FFF2E0039604FF000037B617B684FEA03434FEA4C
S3151FFF2E1013433B613B69002B02DB3B69002B02DD42
S3151FFF2E206FF0110350E03B68642B03DD4FF0640323
S3151FFF2E303B6006E03B6813F1640F02DA6FF0630332
S3151FFF2E403B603A6913464FEAC3039B1A4FEA830354
S3151FFF2E501A46204BD318FB60FB685B69002B2FD0EC
S3151FFF2E603B68002B03DB786800F036F806E07868CE
S3151FFF2E7000F042F83B68C3F100033B603A68134614
S3151FFF2E804FEA43139B1A4FEA4303BB607B684FEA24
S3151FFF2E90134303F0F0034FEA131319467B684FEAF8
S3151FFF2EA0134303F00F0303F1FF331A46BB680846AC
S3151FFF2EB011461A46FEF796FC4FF000037B6102E0B0
S3151FFF2EC06FF01B037B617B69184607F11807BD4629
S3151FFF2ED080BD00BFC432002080B582B000AF7860CE
S3151FFF2EE04FF000004FF008014FF00102FDF7E6FE1D
S3151FFF2EF007F10807BD4680BD80B582B000AF786079
S3151FFF2F004FF000004FF008014FF00002FDF7D6FE0D
S3151FFF2F1007F10807BD4680BD80B584B000AF786056
S3151FFF2F20124BBB604FF00003FB6013E0BB684FF013
S3151FFF2F3000021A60BB686FF004025A60BB684FF04D
S3151FFF2F4000029A60BB6803F10C03BB60FB6803F1C9
S3151FFF2F500103FB60FB68002BE8D04FF04C5000F0DD
S3151FFF2F6007F807F11007BD4680BD00BFE0320020FE
S3151FFF2F7080B586B000AF78607B684FEA03434FEAA0
S3151FFF2F8013433B613B69002B02DB3B69002B02DDD1
S3151FFF2F906FF011031EE03A6913464FEA43039B186E
S3151FFF2FA04FEA83031A460E4BD318FB60FB681B6859
S3151FFF2FB0002B03D06FF028037B610AE040F2063037
S3151FFF2FC0FDF726FFFB684FF001021A604FF0000363
S3151FFF2FD07B617B69184607F11807BD4680BD00BF99
S3151FFF2FE0E032002080B487B000AF78604FF0000357
S3151FFF2FF0FB607B684FEA03434FEA13437B617B69A1
S3151FFF3000002B02DB7B69002B02DD6FF0110318E03B
S3151FFF30107A6913464FEA43039B184FEA83031A46FF
S3151FFF30200B4BD3183B613B691B68002B07D0094B22
S3151FFF3030DB68FB60FA683B699A60FB6801E06FF02B
S3151FFF30401B03184607F11C07BD4680BC704700BF10
S3151FFF3050E03200200000044080B400AF074B074A50
S3151FFF3060126822F001021A60044B044A126842F0EA
S3151FFF307001021A60BD4680BC704700BF00000440B6
S3151FFF308080B582B000AF4FF00003FB804FF04C506E
S3151FFF3090FFF7A8FF0346FB80FA88114B1B68D21860
S3151FFF30A00F4B1A60FB884FF06E0202FB03F3002BD8
S3151FFF30B001DA03F107034FEAE3039AB2094B1A80BA
S3151FFF30C0FFF7CAFF064B1A68074BA3FB02134FEA0C
S3151FFF30D093039AB2054B1A8007F10807BD4680BDB9
S3151FFF30E0F0320020EC320020398EE338F432002014
S3151FFF30F080B584B000AF0346FB714FF00003FB732F
S3151FFF310007F107034FF0000019464FF00102FEF7C4
S3151FFF311067F807F10F034FF000001946FEF7ACF8EB
S3151FFF3120FB7B184607F11007BD4680BD80B584B0EF
S3151FFF313000AF78604FF0FF03FB7307F10F034FF0EC
S3151FFF3140000019464FF00102FEF74AF84FF0000044
S3151FFF31507968FEF791F807F11007BD4680BD00BFDE
S3151FFF316080B582B000AF0D4B4FF4FA721A604FF065
S3151FFF3170FF00FFF7BDFF4FF0FF00FFF7B9FF034645
S3151FFF3180FB71FB79FF2B03D0044B1B68002BF2D17E
S3151FFF3190FB79184607F10807BD4680BDFC320020A4
S3151FFF31A080B500AF4FF000004FF00D014FF0010249
S3151FFF31B0FDF784FD4FF0FF00FFF79AFF80BD00BFAD
S3151FFF31C080B500AF4FF000004FF00D014FF000022A
S3151FFF31D0FDF774FDFFF7C4FF0346FF2B04D0FFF770
S3151FFF31E0DFFF4FF0000301E04FF00103184680BDDC
S3151FFF31F080B500AF4FF000004FF00001FDF7B0FEA6
S3151FFF320080BD00BF80B500AFFFF7DAFFFFF7C8FF2E
S3151FFF3210044B1B78DBB243F00103DAB2014B1A7082
S3151FFF322080BD00BF9C31002080B584B000AF7860A1
S3151FFF32303960264B4FF064021A604FF0FF00FFF70D
S3151FFF324057FF0346FB73FB7BFF2B03D11F4B1B68EC
S3151FFF3250002BF2D1FB7BFE2B02D04FF0000330E099
S3151FFF32607B687A6802F101027A601846FFF75EFFF4
S3151FFF32707B687A6802F101027A601846FFF756FFEC
S3151FFF32807B687A6802F101027A601846FFF74EFFE4
S3151FFF32907B687A6802F101027A601846FFF746FFDC
S3151FFF32A03B68A3F104033B603B68002BD8D14FF06B
S3151FFF32B0FF00FFF71DFF4FF0FF00FFF719FF4FF04E
S3151FFF32C00103184607F11007BD4680BDF8320020DF
S3151FFF32D080B584B000AF78600B46FB704FF4007368
S3151FFF32E0FB60FFF73DFF0346FF2B02D04FF00003A6
S3151FFF32F037E0FB781846FFF7FBFEFB78FD2B2ED03A
S3151FFF33007B681B787A6802F101027A601846FFF71D
S3151FFF3310EFFE7B681B787A6802F101027A60184616
S3151FFF3320FFF7E6FEFB68A3F10203FB60FB68002BBA
S3151FFF3330E6D14FF0FF00FFF7DBFE4FF0FF00FFF771
S3151FFF3340D7FE4FF0FF00FFF7D3FE0346FB72FB7A54
S3151FFF335003F01F03052B02D04FF0000301E04FF0D0
S3151FFF33600103184607F11007BD4680BD80B584B01F
S3151FFF337000AF03463960FB71FB795BB2002B10DA96
S3151FFF3380FB7903F07F03FB714FF037004FF000010E
S3151FFF3390FFF7ECFF0346BB73BB7B012B01D9BB7B3F
S3151FFF33A059E0FFF7FDFEFFF70BFF0346002B02D188
S3151FFF33B04FF0FF034FE0FB7943F04003DBB21846A4
S3151FFF33C0FFF796FE3B684FEA1363DBB21846FFF71C
S3151FFF33D08FFE3B684FEA1343DBB21846FFF788FEA3
S3151FFF33E03B684FEA1323DBB21846FFF781FE3B68A4
S3151FFF33F0DBB21846FFF77CFE4FF00103FB73FB7929
S3151FFF3400002B02D14FF09503FB73FB79082B02D1DB
S3151FFF34104FF08703FB73FB7B1846FFF769FEFB79AC
S3151FFF34200C2B03D14FF0FF00FFF762FE4FF00A038D
S3151FFF3430FB734FF0FF00FFF75BFE0346BB73BB7BC0
S3151FFF34405BB2002B06DAFB7B03F1FF33FB73FB7BC0
S3151FFF3450002BEED1BB7B184607F11007BD4680BD7B
S3151FFF346090B585B000AF0346FB71FB79002B02D0E9
S3151FFF34704FF00103E0E0734B1B78DBB203F002034F
S3151FFF3480002B03D06F4B1B78DBB2D5E0FFF7B0FEE7
S3151FFF34904FF00A03FB7307E04FF0FF00FFF728FE0D
S3151FFF34A0FB7B03F1FF33FB73FB7B002BF4D14FF049
S3151FFF34B000037B734FF000004FF00001FFF756FF2D
S3151FFF34C00346012B40F09C805F4B4FF47A721A60C4
S3151FFF34D04FF008004FF4D571FFF748FF0346012B46
S3151FFF34E05AD14FF00003FB730FE0FC7B4FF0FF0039
S3151FFF34F0FFF7FEFD03461A4607F110010B1903F8E6
S3151FFF3500082CFB7B03F10103FB73FB7B032BECD91E
S3151FFF3510BB7A012B74D1FB7AAA2B71D100BF4A4B01
S3151FFF35201B68002B08D04FF0A9004FF08041FFF713
S3151FFF35301DFF0346002BF2D1434B1B68002B5FD0A9
S3151FFF35404FF03A004FF00001FFF710FF0346002B25
S3151FFF355056D14FF00003FB730FE0FC7B4FF0FF00CC
S3151FFF3560FFF7C6FD03461A4607F110010B1903F8AD
S3151FFF3570082CFB7B03F10103FB73FB7B032BECD9AE
S3151FFF35803B7A03F04003002B02D04FF00C0301E000
S3151FFF35904FF004037B7333E04FF0A9004FF0000198
S3151FFF35A0FFF7E4FE0346012B06D84FF002037B739A
S3151FFF35B04FF0A903BB7306E04FF001037B734FF078
S3151FFF35C00103BB7300BF204B1B68002B08D0BB7BBF
S3151FFF35D018464FF00001FFF7C9FE0346002BF2D135
S3151FFF35E0194B1B68002B08D04FF010004FF40071CA
S3151FFF35F0FFF7BCFE0346002B02D04FF000037B7381
S3151FFF36007A7B124B1A60FFF7CBFD7B7B002B0ED00D
S3151FFF36100C4B1B78DBB223F00103DAB2094B1A708E
S3151FFF36204FF000004FF00001FDF73AFD01E0FFF7F5
S3151FFF3630E9FD044B1B78DBB2184607F11407BD469D
S3151FFF364090BD00BF9C310020F832002000330020C0
S3151FFF365080B483B000AF0346FB71FB79002B02D00A
S3151FFF36604FF0010302E0044B1B78DBB2184607F14C
S3151FFF36700C07BD4680BC70479C31002080B584B0C7
S3151FFF368000AFB9607A600246FA73FB70FB7B002BB3
S3151FFF369002D1FB78002B02D14FF0040356E02E4BCD
S3151FFF36A01B78DBB203F00103DBB2002B02D04FF016
S3151FFF36B003034BE0294B1B6803F00803002B03D1C1
S3151FFF36C07B684FEA43237B60FB78012B13D14FF0B7
S3151FFF36D011007968FFF74AFE0346002B2ED1B86803
S3151FFF36E04FF40071FFF7A0FD0346002B26D04FF0C6
S3151FFF36F00003FB7022E04FF012007968FFF736FEDA
S3151FFF37000346002B1AD1B8684FF40071FFF78CFDE3
S3151FFF37100346002B0BD0BB6803F50073BB60FB781A
S3151FFF372003F1FF33FB70FB78002BECD100E000BFEA
S3151FFF37304FF00C004FF00001FFF718FEFFF730FDAB
S3151FFF3740FB78002B0CBF00230123DBB2184607F1C2
S3151FFF37501007BD4680BD00BF9C31002000330020EF
S3151FFF376080B584B000AFB9607A600246FA73FB700A
S3151FFF3770FB7B002B02D1FB78002B02D14FF00403FA
S3151FFF378072E03C4B1B78DBB203F00103DBB2002B6D
S3151FFF379002D04FF0030367E0364B1B78DBB203F013
S3151FFF37A00403002B02D04FF002035DE0324B1B6870
S3151FFF37B003F00803002B03D17B684FEA43237B608B
S3151FFF37C0FB78012B13D14FF018007968FFF7CEFD59
S3151FFF37D00346002B40D1B8684FF0FE01FFF778FD77
S3151FFF37E00346002B38D04FF00003FB7034E0224B0B
S3151FFF37F01B6803F00603002B05D0FB784FF09700DD
S3151FFF38001946FFF7B3FD4FF019007968FFF7AEFDB5
S3151FFF38100346002B20D1B8684FF0FC01FFF758FD78
S3151FFF38200346002B0BD0BB6803F50073BB60FB7809
S3151FFF383003F1FF33FB70FB78002BECD100E000BFD9
S3151FFF38404FF000004FF0FD01FFF742FD0346002B2F
S3151FFF385002D14FF00103FB70FFF7A2FCFB78002B91
S3151FFF38600CBF00230123DBB2184607F11007BD4625
S3151FFF387080BD00BF9C3100200033002090B58BB068
S3151FFF388000AF0B463A600246FA71BB713B683B625B
S3151FFF3890FB79002B02D04FF00403DCE1AD4B1B7805
S3151FFF38A0DBB203F00103DBB2002B02D04FF00303A1
S3151FFF38B0D1E14FF0010387F82730BB790E2B00F2BA
S3151FFF38C0A68101A252F823F00539FF1F1F39FF1FDB
S3151FFF38D0E139FF1FF339FF1F0F3CFF1F0F3CFF1F70
S3151FFF38E00F3CFF1F0F3CFF1F0F3CFF1F0F3CFF1F10
S3151FFF38F0133BFF1F273BFF1F5D3BFF1F8B3BFF1F1E
S3151FFF3900D93BFF1FFFF75CFC0346002B00F08481AA
S3151FFF3910FFF746FC4FF0000387F8273097E14FF07C
S3151FFF392009004FF00001FFF721FD0346002B40F072
S3151FFF3930758107F10C0318464FF01001FFF774FC52
S3151FFF39400346002B00F06C813B7B4FEA9313DBB2E0
S3151FFF3950012B0ED17B7D1A463B7D4FEA0323D318DE
S3151FFF396003F10103FB613B68FA694FEA82221A6082
S3151FFF397031E07B7C03F00F03DAB2BB7D4FEAD31333
S3151FFF3980DBB2D318DAB27B7D03F00303DBB24FEA58
S3151FFF39904303DBB2D318DBB203F1020387F82630EA
S3151FFF39A03B7D4FEA9313DBB21A46FB7C4FEA830339
S3151FFF39B0D218BB7C03F003034FEA8323D31803F10B
S3151FFF39C00103FB613B6897F82620A2F10902F969FB
S3151FFF39D001FA02F21A604FF0000387F8273036E12B
S3151FFF39E03B684FF400721A804FF0000387F82730A9
S3151FFF39F02DE1594B1B6803F00403002B3AD04FF000
S3151FFF3A008D004FF00001FFF7B1FC0346002B40F07E
S3151FFF3A1009814FF0FF00FFF76BFB07F10C031846F9
S3151FFF3A204FF01001FFF700FC0346002B00F0FC8050
S3151FFF3A304FF0300387F8263009E04FF0FF00FFF7FE
S3151FFF3A4057FB97F8263003F1FF3387F8263097F891
S3151FFF3A502630002BF1D13B68BA7D4FEA1212D2B244
S3151FFF3A604FF0100101FA02F21A604FF0000387F8B8
S3151FFF3A702730ECE04FF009004FF00001FFF776FC0F
S3151FFF3A800346002B40F0D28007F10C0318464FF078
S3151FFF3A901001FFF7C9FB0346002B00F0C9802E4B11
S3151FFF3AA01B6803F00203002B16D03B68BA7D02F09A
S3151FFF3AB03F024FEA4201FA7D4FEAD212D2B28A186B
S3151FFF3AC002F101017A7E4FEA9212D2B202F1FF3260
S3151FFF3AD001FA02F21A6017E03B68BA7D02F07C0218
S3151FFF3AE04FEAA20292B202F10102F97D01F0030130
S3151FFF3AF04FEAC100F97D4FEA5111C9B2411801F1D1
S3151FFF3B00010101FB02F21A604FF0000387F827300D
S3151FFF3B109DE0114B1B68DAB23B6A1A704FF0000328
S3151FFF3B2087F8273093E04FF009004FF00001FFF7AA
S3151FFF3B301DFC0346002B7DD13B6818464FF0100135
S3151FFF3B40FFF772FB0346002B76D04FF0000387F873
S3151FFF3B5027307CE09C310020003300204FF00A0005
S3151FFF3B604FF00001FFF702FC0346002B66D13B68AF
S3151FFF3B7018464FF01001FFF757FB0346002B5FD088
S3151FFF3B804FF0000387F8273061E04FF03A004FF000
S3151FFF3B900001FFF7EBFB0346002B53D14FF000034A
S3151FFF3BA087F826300FE03A6897F82630D4184FF07B
S3151FFF3BB0FF00FFF79DFA0346237097F8263003F1A0
S3151FFF3BC0010387F8263097F82630032BEBD94FF0E2
S3151FFF3BD0000387F827303AE04FF08D004FF00001C2
S3151FFF3BE0FFF7C4FB0346002B2ED14FF0FF00FFF755
S3151FFF3BF07FFA3B6818464FF04001FFF715FB034658
S3151FFF3C00002B23D04FF0000387F827301FE04FF01C
S3151FFF3C10040387F827301AE000BF18E000BF16E03D
S3151FFF3C2000BF14E000BF12E000BF10E000BF0EE0B0
S3151FFF3C3000BF0CE000BF0AE000BF08E000BF06E0C0
S3151FFF3C4000BF04E000BF02E000BF00E000BFFFF7B8
S3151FFF3C50A7FA97F82730184607F12C07BD4690BDE0
S3151FFF3C6080B483B000AF184B1B687B607B68002B4B
S3151FFF3C7006D07B6803F1FF337B60134B7A681A60AC
S3151FFF3C80124B1B687B607B68002B06D07B6803F19A
S3151FFF3C90FF337B600D4B7A681A600D4B1B887B8049
S3151FFF3CA00C4B1B787B707B7823F004037B707B7830
S3151FFF3CB023F002037B70074B7A781A7007F10C0704
S3151FFF3CC0BD4680BC704700BFF8320020FC32002083
S3151FFF3CD0043300209C31002080B584B000AF03461B
S3151FFF3CE0FB714FF00003FB7307F107034FF0000053
S3151FFF3CF019464FF00102FDF773FA07F10F034FF055
S3151FFF3D0000001946FDF7B8FAFB7B184607F11007A7
S3151FFF3D10BD4680BD80B584B000AF03463960FB71D9
S3151FFF3D204FF00003BB734FF00003FB734FF0FF0011
S3151FFF3D30FFF7D2FF4FF000004FF00D014FF00002CB
S3151FFF3D40FCF7BCFFFB7943F04003DBB21846FFF7D6
S3151FFF3D50C3FF3B684FEA1363DBB21846FFF7BCFF8F
S3151FFF3D603B684FEA1343DBB21846FFF7B5FF3B68C5
S3151FFF3D704FEA1323DBB21846FFF7AEFF3B68DBB2F2
S3151FFF3D801846FFF7A9FFFB79002B02D0FB79102BF3
S3151FFF3D9004D14FF09500FFF79FFF03E04FF0FF00A1
S3151FFF3DA0FFF79AFF4FF0C803FB734FF0FF00FFF7B4
S3151FFF3DB093FF0346BB73FB7B03F1FF33FB73BB7B96
S3151FFF3DC05BB2002B02DAFB7B002BEED14FF000001C
S3151FFF3DD04FF00D014FF00102FCF770FFBB7B18463A
S3151FFF3DE007F11007BD4680BD80B586B000AFB9602D
S3151FFF3DF013460246FA73FB714FF00003BB754FF074
S3151FFF3E000003FB754FF0FF00FFF766FF4FF0000043
S3151FFF3E104FF00D014FF00002FCF750FFFB7B43F005
S3151FFF3E204003DBB21846FFF757FFBB684FEA136322
S3151FFF3E30DBB21846FFF750FFBB684FEA1343DBB2EF
S3151FFF3E401846FFF749FFBB684FEA1323DBB2184635
S3151FFF3E50FFF742FFBB68DBB21846FFF73DFFFB7953
S3151FFF3E601846FFF739FF4FF0C803FB754FF0FF00EA
S3151FFF3E70FFF732FF0346BB75FB7D03F1FF33FB7570
S3151FFF3E80BB7D5BB2002B02DAFB7D002BEED1BB7D28
S3151FFF3E90184607F11807BD4680BD00BF80B586B01F
S3151FFF3EA000AF786039604FF00003FB734FF00003DC
S3151FFF3EB07B614FF000033B617B684FEA43234FF063
S3151FFF3EC011001946FFF726FF0346FB73FB7B002BEB
S3151FFF3ED001D0FB7B51E04FF000004FF00D014FF07B
S3151FFF3EE00002FCF7EBFE12E03B6903F101033B61A6
S3151FFF3EF03A69244B9A420AD94FF000004FF00D0141
S3151FFF3F004FF00102FCF7DAFE4FF0010335E04FF0E9
S3151FFF3F10FF00FFF7E1FE0346FE2BE5D14FF000033F
S3151FFF3F207B610FE04FF0FF00FFF7D6FE03461A46F1
S3151FFF3F303B681A703B6803F101033B607B6903F122
S3151FFF3F4001037B617A6940F2FF139A42EAD94FF068
S3151FFF3F50FF00FFF7C1FE4FF0FF00FFF7BDFE4FF05B
S3151FFF3F6000004FF00D014FF00102FCF7A7FE4FF0C7
S3151FFF3F70FF00FFF7B1FE4FF00003184607F11807C2
S3151FFF3F80BD4680BDFEFFFF0F80B586B000AF7860D0
S3151FFF3F9039604FF00003FB734FF000037B614FF057
S3151FFF3FA000033B617B684FEA43234FF01800194616
S3151FFF3FB0FFF7B0FE0346FB73FB7B002B01D0FB7B9A
S3151FFF3FC079E04FF000004FF00D014FF00002FCF7B4
S3151FFF3FD075FE4FF0FF00FFF77FFE4FF0FF00FFF765
S3151FFF3FE07BFE4FF0FF00FFF777FE4FF0FE00FFF758
S3151FFF3FF073FE4FF000037B610CE03B681B783A684A
S3151FFF400002F101023A601846FFF766FE7B6903F16C
S3151FFF401001037B617A6940F2FF139A42EDD94FF094
S3151FFF4020FF00FFF759FE4FF0FF00FFF755FE4FF05A
S3151FFF4030FF00FFF751FE0346FB73FB7B03F01F03D6
S3151FFF4040052B22D04FF000004FF00D014FF001025C
S3151FFF4050FCF734FEFB7B2EE03A694FF6FE739A425E
S3151FFF406094BF00230123DBB23A6902F101023A61D1
S3151FFF4070002B0BD04FF000004FF00D014FF0010248
S3151FFF4080FCF71CFE4FF0010315E000BF4FF0FF00CA
S3151FFF4090FFF722FE0346002BDED14FF000004FF045
S3151FFF40A00D014FF00102FCF709FE4FF0FF00FFF76E
S3151FFF40B013FE4FF00003184607F11807BD4680BDD4
S3151FFF40C080B586B000AF78604FF00003BB604FF03E
S3151FFF40D00003FB604FF000037B614FF00003FB748F
S3151FFF40E07B687B612D4B1B6803F101022B4B1A600B
S3151FFF40F02A4B1B68402B22D9284B4FF001021A600F
S3151FFF4100274B1A6840F26A239A4203D8244B40F280
S3151FFF41106B221A60224B1A68224B10461946FFF76D
S3151FFF412033FF0346FB741F4A1F4B1A60FB7C002B92
S3151FFF413005D11B4B1B6803F10102194B1A607A69E4
S3151FFF414040F60A539A4216D007F1080378691946B3
S3151FFF415000F02EF8144B1A6807F10803104619468C
S3151FFF41604FF0080200F018F90F4B1B6803F1080206
S3151FFF41700D4B1A600DE00C4B1B6818460B494FF091
S3151FFF4180080200F009F9084B1B6803F10802064BEA
S3151FFF41901A6007F11807BD4680BD00BF083500200E
S3151FFF41A0A031002008330020A4310020282500203D
S3151FFF41B080B487B000AF786039604FF000037B6132
S3151FFF41C04FF000033B6142F21073FB604FF0000399
S3151FFF41D0BB607B687B613B68BB607B69002B08DB31
S3151FFF41E0BB684FF020021A703B6903F101033B6165
S3151FFF41F00BE0BB684FF02D021A707B69C3F10003FA
S3151FFF42007B613B6903F101033B61BB6803F101035B
S3151FFF4210BB6009E0FB683A4A82FB03124FEAA20220
S3151FFF42204FEAE373D31AFB607A69FB6892FBF3F3DA
S3151FFF4230002B28D17B69002BECD124E07A69FB6820
S3151FFF424092FBF3F3DBB203F13003DAB2BB681A70EA
S3151FFF42503B6903F101033B61BB6803F10103BB60CC
S3151FFF42607B69FA6893FBF2F2F96801FB02F29B1A6C
S3151FFF42707B61FB68224A82FB03124FEAA2024FEAC7
S3151FFF4280E373D31AFB60FB68012B02DD7B68002BF0
S3151FFF4290D4D179691A4B83FB01234FEAA3024FEA55
S3151FFF42A0E173D21A13464FEA83039B184FEA430360
S3151FFF42B0CA1AD3B203F13003DAB2BB681A703B696D
S3151FFF42C003F101033B610BE0BB6803F10103BB6015
S3151FFF42D0BB684FF020021A703B6903F101033B6174
S3151FFF42E03B69062BF0DDBB6803F10103BB60BB68AF
S3151FFF42F04FF009021A7007F11C07BD4680BC7047B5
S3151FFF43006766666680B487B000AF786039604FF026
S3151FFF431000037B614FF000033B614FF06403FB60BB
S3151FFF43204FF00003BB607B687B613B68BB6024E08B
S3151FFF43307A69FB6892FBF3F3DBB203F13003DAB260
S3151FFF4340BB681A703B6903F101033B61BB6803F14D
S3151FFF43500103BB607B69FA6893FBF2F2F96801FB05
S3151FFF436002F29B1A7B61FB680A4A82FB03124FEA22
S3151FFF4370A2024FEAE373D31AFB603B69022BD7DD19
S3151FFF4380BB684FF020021A7007F11C07BD4680BCA1
S3151FFF4390704700BF6766666680B489B000AFF86076
S3151FFF43A0B9607A604FF00003FB614FF00003BB61FA
S3151FFF43B04FF000037B61FB68BB61BB687B614FF0FE
S3151FFF43C00003FB610FE07B691A78BB691A70BB6933
S3151FFF43D003F10103BB617B6903F101037B61FB6989
S3151FFF43E003F10103FB61FA697B689A42EBDB07F175
S3151FFF43F02407BD4680BC704780B582B000AF78608A
S3151FFF4400396006E03B681B7803F10103DAB23B68AC
S3151FFF44101A70786839684FF0060201F06BFE034683
S3151FFF4420082BEFD007F10807BD4680BD80B582B0C8
S3151FFF443000AF786000BF4FF00000FFF711F803468B
S3151FFF4440002BF8D107F10807BD4680BD80B582B0A6
S3151FFF445000AF78607B681B68002B02D0786802F07C
S3151FFF4460A7FB07F10807BD4680BD00BF80B582B019
S3151FFF447000AF786039607B681B68002B06D03B68EE
S3151FFF4480002B03D07868396803F0A6FF07F10807EA
S3151FFF4490BD4680BD80B400AF024B1846BD4680BCEB
S3151FFF44A0704700BF0000213C80B487B000AFF860A3
S3151FFF44B0B9607A60FB687B61BB683B610BE03B6958
S3151FFF44C01A787B691A707B6903F101037B613B696C
S3151FFF44D003F101033B617B68002B0CBF0023012304
S3151FFF44E0DBB27A6802F1FF327A60002BE7D107F160
S3151FFF44F01C07BD4680BC704780B487B000AFF8600D
S3151FFF4500B9607A60FB687B6107E0BB68DAB27B69DB
S3151FFF45101A707B6903F101037B617B68002B0CBF5C
S3151FFF452000230123DBB27A6802F1FF327A60002B88
S3151FFF4530EBD107F11C07BD4680BC704780B489B01D
S3151FFF454000AFF860B9607A60FB68FB61BB68BB614F
S3151FFF45504FF000037B6100BF7B68002B0CBF00235E
S3151FFF45600123DBB27A6802F1FF327A60002B16D085
S3151FFF4570FB691B781A46BB691B78D31A7B617B695C
S3151FFF4580002B14BF00230123DBB2FA6902F10102DC
S3151FFF4590FA61BA6902F10102BA61002BDCD17B69AC
S3151FFF45A0184607F12407BD4680BC704780B483B009
S3151FFF45B000AF7860396003E07B6803F101037B601E
S3151FFF45C07B681B78002B05D07B681B781A463B68D8
S3151FFF45D09A42F1D17B681B78184607F10C07BD4637
S3151FFF45E080BC704780B584B000AF786039607B6848
S3151FFF45F01B6BFB60FA683B689A4255D07B681B7939
S3151FFF4600002B39D07B685A787B6803F13403104639
S3151FFF46101946FA684FF00103FFF7A2F80346002B6E
S3151FFF462002D04FF0010341E07B684FF000021A7181
S3151FFF46307B685A6A7B681B6AD218FB689A421BD92A
S3151FFF46407B68DB78FB7214E07B681B6AFA68D318FA
S3151FFF4650FB607B685A787B6803F134031046194663
S3151FFF4660FA684FF00103FFF77BF8FB7A03F1FF337D
S3151FFF4670FB72FB7A012BE7D83B68002B14D07B68B4
S3151FFF46805A787B6803F13403104619463A684FF090
S3151FFF46900103FEF7F3FF0346002B02D04FF0010382
S3151FFF46A004E07B683A681A634FF00003184607F168
S3151FFF46B01007BD4680BD00BF80B584B000AF7860D0
S3151FFF46C078684FF00001FFF78DFF0346FB73FB7BF7
S3151FFF46D0002B40F0D2807B681B78032B40F0BE80F7
S3151FFF46E07B685B79002B00F0B9807B684FF0000277
S3151FFF46F01A637B6803F1340318464FF000014FF42A
S3151FFF47000072FFF7F9FE7B6803F50C7303F10203D3
S3151FFF47104FF055021A707B6803F50C7303F1030301
S3151FFF47204FF0AA021A707B684FF0520283F83420AB
S3151FFF47307B6803F135034FF052021A707B6803F152
S3151FFF474036034FF061021A707B6803F137034FF090
S3151FFF475041021A707B6803F506734FF072021A70D7
S3151FFF47607B6803F5067303F101034FF072021A709C
S3151FFF47707B6803F5067303F102034FF041021A70BC
S3151FFF47807B6803F5067303F103034FF061021A708B
S3151FFF47907B6803F507737A681269D2B21A707B6852
S3151FFF47A003F5067303F105037A68126992B24FEA9E
S3151FFF47B0122292B2D2B21A707B6803F5067303F107
S3151FFF47C006037A6812694FEA1242D2B21A707B68E1
S3151FFF47D003F5067303F107037A6812694FEA12623C
S3151FFF47E0D2B21A707B6803F508737A68D268D2B2A1
S3151FFF47F01A707B6803F5087303F101037A68D268A1
S3151FFF480092B24FEA122292B2D2B21A707B6803F5A6
S3151FFF4810087303F102037A68D2684FEA1242D2B2D3
S3151FFF48201A707B6803F5087303F103037A68D2686E
S3151FFF48304FEA1262D2B21A707B6859787B6803F10E
S3151FFF484034027B685B69084611461A464FF001031F
S3151FFF4850FEF786FF7B684FF000025A717B685B7815
S3151FFF486018464FF000014FF00002FFF707F8034607
S3151FFF4870002B02D04FF00103FB73FB7B184607F19A
S3151FFF48801007BD4680BD00BF80B483B000AF786000
S3151FFF489039603B68A3F102033B607B68DB69A3F1C9
S3151FFF48A002023B689A4202D84FF0000307E07B687B
S3151FFF48B09B783A6802FB03F27B68DB6AD3181846BC
S3151FFF48C007F10C07BD4680BC704700BF80B586B099
S3151FFF48D000AF786039603B68012B04D97B68DA69C2
S3151FFF48E03B689A4202D84FF00103BCE07B681B78F6
S3151FFF48F0022B54D0032B79D0012B40F0B2803B689B
S3151FFF49007B617B694FEA53037A69D3187B617B68A7
S3151FFF49105A6A7B694FEA5323D31878681946FFF7FC
S3151FFF492061FE0346002B40F095807B694FEAC35318
S3151FFF49304FEAD3537A68D31893F834303B617B69B8
S3151FFF494003F101037B617B685A6A7B694FEA532335
S3151FFF4950D31878681946FFF745FE0346002B7BD110
S3151FFF49607B694FEAC3534FEAD3537A68D31893F839
S3151FFF497034304FEA03233A6942EA03033B613B683C
S3151FFF498003F00103DBB2002B03D03B694FEA13137E
S3151FFF499004E03B694FEA03534FEA135363E07B6817
S3151FFF49A05A6A3B684FEA1323D31878681946FFF7ED
S3151FFF49B019FE0346002B51D17B6803F134023B6876
S3151FFF49C04FEA43034FEAC3534FEAD353D318FB6050
S3151FFF49D0FB6803F101031B784FEA03239AB2FB68B7
S3151FFF49E01B7842EA03039BB29BB23CE07B685A6A81
S3151FFF49F03B684FEAD313D31878681946FFF7F2FDC2
S3151FFF4A000346002B2CD17B6803F134023B684FEA28
S3151FFF4A1083034FEAC3534FEAD353D318FB60FB6895
S3151FFF4A2003F103031B784FEA0362FB6803F10203DB
S3151FFF4A301B784FEA03431A43FB6803F101031B78F5
S3151FFF4A404FEA03231A43FB681B7842EA030323F04B
S3151FFF4A50704308E000BF04E000BF02E000BF00E0B4
S3151FFF4A6000BF4FF0FF33184607F11807BD4680BD3D
S3151FFF4A7080B588B000AFF860B9607A60BB68012B5C
S3151FFF4A8004D9FB68DA69BB689A4203D84FF0020361
S3151FFF4A90FB7718E1FB681B78022B00F08380032B43
S3151FFF4AA000F0AA80012B40F0FF80BB68BB61BB698A
S3151FFF4AB04FEA5303BA69D318BB61FB685A6ABB69CE
S3151FFF4AC04FEA5323D318F8681946FFF78BFD0346A2
S3151FFF4AD0FB77FB7F002B40F0EB80FB6803F1340273
S3151FFF4AE0BB694FEAC3534FEAD353D3187B61BB68E6
S3151FFF4AF003F00103DBB2002B0FD07B691B78DBB200
S3151FFF4B0003F00F03DAB27B68DBB24FEA0313DBB2A4
S3151FFF4B1042EA0303DBB2DBB201E07B68DBB27A69F1
S3151FFF4B201370BB6903F10103BB61FB684FF0010201
S3151FFF4B301A71FB685A6ABB694FEA5323D318F86881
S3151FFF4B401946FFF74FFD0346FB77FB7F002B40F010
S3151FFF4B50B180FB6803F13402BB694FEAC3534FEAC7
S3151FFF4B60D353D3187B61BB6803F00103DBB2002B62
S3151FFF4B7004D07B684FEA1313DBB210E07B691B7807
S3151FFF4B80DBB223F00F03DAB27B684FEA1323DBB2E4
S3151FFF4B9003F00F03DBB242EA0303DBB2DBB27A6930
S3151FFF4BA013708CE0FB685A6ABB684FEA1323D3184E
S3151FFF4BB0F8681946FFF716FD0346FB77FB7F002BA9
S3151FFF4BC07AD1FB6803F13402BB684FEA43034FEA0E
S3151FFF4BD0C3534FEAD353D3187B617B68DAB27B6922
S3151FFF4BE01A707B6903F101037A6892B24FEA1222A8
S3151FFF4BF092B2D2B21A7062E0FB685A6ABB684FEA7A
S3151FFF4C00D313D318F8681946FFF7ECFC0346FB7757
S3151FFF4C10FB7F002B52D1FB6803F13402BB684FEABF
S3151FFF4C2083034FEAC3534FEAD353D3187B617B6981
S3151FFF4C3003F103031B784FEA03627B6903F1020348
S3151FFF4C401B784FEA03431A437B6903F101031B7862
S3151FFF4C504FEA03231A437B691B7842EA030303F0D8
S3151FFF4C6070437A6842EA03037B607B68DAB27B692B
S3151FFF4C701A707B6903F101037A6892B24FEA122217
S3151FFF4C8092B2D2B21A707B6903F102037A684FEAB6
S3151FFF4C901242D2B21A707B6903F103037A684FEA95
S3151FFF4CA01262D2B21A700AE04FF00203FB7706E0D8
S3151FFF4CB000BF04E000BF02E000BF00E000BFFB68CB
S3151FFF4CC04FF001021A71FB7F184607F12007BD46F9
S3151FFF4CD080BD00BF80B584B000AF786039603B6888
S3151FFF4CE0012B04D97B68DA693B689A4203D84FF0D8
S3151FFF4CF00203FB733FE04FF00003FB7332E078685C
S3151FFF4D003968FFF7E3FDB860BB68002B30D0BB687F
S3151FFF4D10012B03D14FF00203FB732CE0BB68B3F1EA
S3151FFF4D20FF3F03D14FF00103FB7324E07868396817
S3151FFF4D304FF00002FFF79CFE0346FB73FB7B002B26
S3151FFF4D4018D17B681B69B3F1FF3F09D07B681B69CD
S3151FFF4D5003F101027B681A617B684FF001025A71EA
S3151FFF4D60BB683B607B68DA693B689A42C7D802E03B
S3151FFF4D7000BF00E000BFFB7B184607F11007BD46CB
S3151FFF4D8080BD00BF80B586B000AF786039603B68D5
S3151FFF4D90002B0ED17B68DB683B613B69002B04D080
S3151FFF4DA07B68DA693B699A4217D84FF001033B616B
S3151FFF4DB013E078683968FFF789FDB860BB68012B78
S3151FFF4DC002D84FF001036DE07B68DA69BB689A4230
S3151FFF4DD001D9BB6866E03B683B613B697B6100E0CD
S3151FFF4DE000BF7B6903F101037B617B68DA697B691E
S3151FFF4DF09A4209D84FF002037B617A693B699A424F
S3151FFF4E0002D94FF000034DE078687969FFF75EFD21
S3151FFF4E10B860BB68002B0BD1786879696FF0704259
S3151FFF4E20FFF726FE0346FB73FB7B002B10D019E013
S3151FFF4E30BB68B3F1FF3F02D0BB68012B01D1BB6833
S3151FFF4E4030E07A693B699A42CAD14FF0000329E0E5
S3151FFF4E503B68002B06D0786839687A69FFF708FE2A
S3151FFF4E600346FB73FB7B002B12D17B687A69DA60E3
S3151FFF4E707B681B69B3F1FF3F13D07B681B6903F187
S3151FFF4E80FF327B681A617B684FF001025A7108E097
S3151FFF4E90FB7B012B02D14FF0FF3301E04FF00103E4
S3151FFF4EA07B617B69184607F11807BD4680BD00BFAA
S3151FFF4EB080B584B000AF78600B467B807B687A88AD
S3151FFF4EC0DA807B689B68FB60FB68012B05D07B68DC
S3151FFF4ED01B68DA69FB689A4202D84FF002036DE03E
S3151FFF4EE0FB68002B08D17B681B681B78032B03D13C
S3151FFF4EF07B681B689B6AFB60FB68002B16D17B6870
S3151FFF4F00FA68DA607B681B681B897A889A4202D324
S3151FFF4F104FF0020352E07B681B689A6A7B884FEA51
S3151FFF4F2013139BB2D2187B681A6139E07B681B6823
S3151FFF4F309B784FEA03137B811DE07B681B6818462E
S3151FFF4F40F968FFF7C3FCF860FB68B3F1FF3F02D1B7
S3151FFF4F504FF0010332E0FB68012B05D97B681B6805
S3151FFF4F60DA69FB689A4202D84FF0020326E07A8875
S3151FFF4F707B89D31A7B807A887B899A42DDD27B68AD
S3151FFF4F80FA68DA607B681B681846F968FFF77CFCCE
S3151FFF4F9002467B884FEA13139BB2D2187B681A61AE
S3151FFF4FA07B681B6803F134027B8803F00F034FEA0C
S3151FFF4FB04313D2187B685A614FF00003184607F157
S3151FFF4FC01007BD4680BD00BF90B585B000AF7860A6
S3151FFF4FD039607B68DB8803F101033B813B89002B2B
S3151FFF4FE003D07B681B69002B02D14FF00403D4E06B
S3151FFF4FF03B8903F00F039BB2002B40F0BD807B68FC
S3151FFF50001B6903F101027B681A617B68DB68002B52
S3151FFF501009D17B681B681B893A899A42C0F0AC800D
S3151FFF50204FF00403B9E03B894FEA13139BB21A46AD
S3151FFF50307B681B689B7803F1FF3302EA0303002B90
S3151FFF504040F09A807B681A687B68DB6810461946B2
S3151FFF5050FFF73CFCF860FB68012B02D84FF00203F9
S3151FFF50609BE0FB68B3F1FF3F02D14FF0010394E0D2
S3151FFF50707B681B68DA69FB689A4271D83B68002B0D
S3151FFF508002D14FF0040388E07B681A687B68DB68F0
S3151FFF509010461946FFF776FEF860FB68002B02D114
S3151FFF50A04FF0070379E0FB68012B02D14FF0020394
S3151FFF50B073E0FB68B3F1FF3F02D14FF001036CE0D2
S3151FFF50C07B681B6818464FF00001FFF78BFA0346F4
S3151FFF50D0002B02D04FF001035FE07B681B6803F1D3
S3151FFF50E0340318464FF000014FF40072FFF704FA1E
S3151FFF50F07B681C687B681B681846F968FFF7C4FB4B
S3151FFF5100034623634FF00003FB721BE07B681B689C
S3151FFF51104FF001021A717B681B6818464FF000019A
S3151FFF5120FFF760FA0346002B02D04FF0010334E06E
S3151FFF51307B681B681A6B02F101021A63FB7A03F184
S3151FFF51400103FB727B681B689B78FA7A9A42DDD351
S3151FFF51507B681B687A681268116BFA7A8A1A1A6358
S3151FFF51607B68FA68DA607B681B681846F968FFF781
S3151FFF51708BFB02467B681A617B683A89DA807B68FC
S3151FFF51801B6803F134023B8903F00F034FEA4313F6
S3151FFF5190D2187B685A614FF00003184607F11407B0
S3151FFF51A0BD4690BD80B586B000AF786078684FF07A
S3151FFF51B00001FFF77DFE0346FB75FB7D002B01D02C
S3151FFF51C0FB7D3BE07B681A687B681B6910461946A7
S3151FFF51D0FFF708FA0346FB75FB7D002B2AD17B6879
S3151FFF51E05B693B613B691B78FB73FB7B002B03D121
S3151FFF51F04FF00403FB7520E03B6903F10B031B789C
S3151FFF520003F00803002B0AD17B689B69386919468F
S3151FFF52104FF00B02FFF792F90346002B0CD078686D
S3151FFF52204FF00001FFF7D0FE0346FB75FB7D002BFA
S3151FFF5230C8D002E000BF00E000BFFB7D184607F1A4
S3151FFF52401807BD4680BD00BF80B586B000AF78602A
S3151FFF52504FF00403FB752EE07B681A687B681B699A
S3151FFF526010461946FFF7BEF90346FB75FB7D002B5C
S3151FFF527026D17B685B693B613B691B78FB73FB7BB5
S3151FFF5280002B03D14FF00403FB751EE0FB7BE52BC1
S3151FFF529007D03B6903F10B031B7803F00803002BB1
S3151FFF52A010D078684FF00001FFF78EFE0346FB759F
S3151FFF52B0FB7D002B08D17B681B69002BCCD104E03B
S3151FFF52C000BF02E000BF00E000BFFB7D002B03D045
S3151FFF52D07B684FF000021A61FB7D184607F118071E
S3151FFF52E0BD4680BD80B584B000AF786078684FF04B
S3151FFF52F00001FFF7DDFD0346FB73FB7B002B22D16E
S3151FFF53007B681A687B681B6910461946FFF76AF99F
S3151FFF53100346FB73FB7B002B14D17B685B691B78F2
S3151FFF5320BB73BB7BE52B0ED0BB7B002B0BD07868EB
S3151FFF53304FF00101FFF748FE0346FB73FB7B002B74
S3151FFF5340DED000E000BFFB7B002B23D17B681A68F2
S3151FFF53507B681B6910461946FFF744F90346FB7323
S3151FFF5360FB7B002B16D17B685B69BB60B8684FF070
S3151FFF537000014FF02002FFF7BFF87B689B69B868F3
S3151FFF538019464FF00B02FFF78FF87B681B684FF02C
S3151FFF539001021A71FB7B184607F11007BD4680BD38
S3151FFF53A080B584B000AF78607B68DB887868194664
S3151FFF53B0FFF77EFD0346FB73FB7B002B16D17B6836
S3151FFF53C01A687B681B6910461946FFF70BF90346D8
S3151FFF53D0FB73FB7B002B09D17B685B694FF0E502F3
S3151FFF53E01A707B681B684FF001021A71FB7B184608
S3151FFF53F007F11007BD4680BD80B588B000AF786046
S3151FFF540039603B681B68FB6003E0FB6803F1010320
S3151FFF5410FB60FB681B782F2BF7D0FB681B785C2B79
S3151FFF5420F3D07B689B69BB60B8684FF020014FF0D4
S3151FFF54300B02FFF761F84FF00003FB774FF00003F6
S3151FFF54403B613B697B614FF00803BB61FA687B6970
S3151FFF5450D3181B782E2B38D1FA687B69D3181B7884
S3151FFF5460BB777B6903F101037B61BB7F2E2B0CD1BE
S3151FFF54707B69022B09D8BA683B69D318BA7F1A70A2
S3151FFF54803B6903F101033B61E6E7BB7F2F2B08D087
S3151FFF5490BB7F5C2B05D0BB7F202B02D94FF00603AA
S3151FFF54A0B9E0FA687B69D2183B681A60BB6803F1DB
S3151FFF54B00B02BB7F202B02D84FF0240301E04FF0D6
S3151FFF54C0200313704FF00003A5E0FA687B69D3181A
S3151FFF54D01B78BB777B6903F101037B61BB7F202BA6
S3151FFF54E05DD9BB7F2F2B5AD0BB7F5C2B57D0BB7F82
S3151FFF54F02E2B03D03A69BB699A4214D3BB69082B7B
S3151FFF550002D1BB7F2E2B02D04FF0060383E04FF055
S3151FFF551008033B614FF00B03BB61FB7F4FEA83031E
S3151FFF5520FB7700BFD1E7BB7F5BB2002B09DAFB7F9F
S3151FFF553043F00303FB77BB7FA3F18003384AD35C9A
S3151FFF5540BB77BB7F37481946FFF730F80346002B5B
S3151FFF555002D04FF006035EE0BB7F402B07D9BB7F10
S3151FFF55605A2B04D8FB7F43F00203FB770DE0BB7F6B
S3151FFF5570602B0AD9BB7F7A2B07D8FB7F43F001032A
S3151FFF5580FB77BB7FA3F12003BB77BA683B69D318B1
S3151FFF5590BA7F1A703B6903F101033B6195E7FA680E
S3151FFF55A07B69D2183B681A60BB7F202B02D84FF04E
S3151FFF55B0040301E04FF00003BB773B69002B02D1C9
S3151FFF55C04FF0060327E0BB681B78E52B03D1BB68AB
S3151FFF55D04FF005021A70BB69082B03D1FB7F4FEAF9
S3151FFF55E08303FB77FB7F03F00303012B03D1BB7FF2
S3151FFF55F043F01003BB77FB7F03F00C03042B03D190
S3151FFF5600BB7F43F00803BB77BB6803F10B03BA7F6E
S3151FFF56101A704FF00003184607F12007BD4680BDDD
S3151FFF5620442500203425002080B489B000AF786060
S3151FFF563039603B6803F10903BB617B681B69002B5C
S3151FFF564000F097807B685B693B613B6903F10C0345
S3151FFF56501B78FB734FF00003FB6118E03A69FB6988
S3151FFF5660D3181B78FB75FB7D202B14D0FB7D052BD9
S3151FFF567002D14FF0E503FB75BB69FA7D1A70BB6953
S3151FFF568003F10103BB61FB6903F10103FB61FB69C6
S3151FFF5690072BE3D900E000BF3B6903F108031B7823
S3151FFF56A0202B23D0BB694FF02E021A70BB6903F163
S3151FFF56B00103BB614FF00803FB6112E03A69FB6907
S3151FFF56C0D3181B78FB75FB7D202B0ED0BB69FA7D8C
S3151FFF56D01A70BB6903F10103BB61FB6903F1010388
S3151FFF56E0FB61FB690A2BE9D900E000BF3B6903F1A8
S3151FFF56F00B031A783B681A723B6903F11F031B786A
S3151FFF57004FEA03623B6903F11E031B784FEA03430C
S3151FFF57101A433B6903F11D031B784FEA03231A4301
S3151FFF57203B6903F11C031B781A433B681A603B69ED
S3151FFF573003F119031B784FEA03239AB23B6903F15F
S3151FFF574018031B7842EA03039BB29AB23B689A80FF
S3151FFF57503B6903F117031B784FEA03239AB23B6991
S3151FFF576003F116031B7842EA03039BB29AB23B6807
S3151FFF5770DA80BB694FF000021A7007F12407BD4696
S3151FFF578080BC704780B584B000AF786039603B68D6
S3151FFF57901B782F2B03D03B681B785C2B08D13B68EC
S3151FFF57A003F101033B607B684FF000029A6004E040
S3151FFF57B07B681B689A697B689A603B681B781F2BFF
S3151FFF57C00BD878684FF00001FFF772FB0346FB7398
S3151FFF57D07B684FF000025A617BE03B4678681946AB
S3151FFF57E0FFF70AFE0346FB73FB7B002B68D1786826
S3151FFF57F0FFF7D8FC0346FB737B689B6903F10B031B
S3151FFF58001B78BB73FB7B002B22D0FB7B042B59D151
S3151FFF5810BB7B03F02003002B11D07B684FF00002E8
S3151FFF58209A607B684FF000025A614FF00003FB73CB
S3151FFF5830BB7B03F00403002B46D100BFCDE7BB7B29
S3151FFF584003F00403002B41D14FF00503FB7340E028
S3151FFF5850BB7B03F00403002B3AD17B685B69BB60FC
S3151FFF5860BB6803F10B031B7803F01003002B03D157
S3151FFF58704FF00503FB732CE0BB6803F115031B7881
S3151FFF58804FEA03239AB2BB6803F114031B7842EA5C
